{
  "_format": "hh-sol-artifact-1",
  "contractName": "FestPass",
  "sourceName": "src/FestPass.sol",
  "abi": [
    {
      "inputs": [
        {
          "internalType": "address",
          "name": "_festToken",
          "type": "address"
        },
        {
          "internalType": "address",
          "name": "_signer",
          "type": "address"
        },
        {
          "internalType": "address",
          "name": "initialOwner",
          "type": "address"
        }
      ],
      "stateMutability": "nonpayable",
      "type": "constructor"
    },
    {
      "inputs": [],
      "name": "ECDSAInvalidSignature",
      "type": "error"
    },
    {
      "inputs": [
        {
          "internalType": "uint256",
          "name": "length",
          "type": "uint256"
        }
      ],
      "name": "ECDSAInvalidSignatureLength",
      "type": "error"
    },
    {
      "inputs": [
        {
          "internalType": "bytes32",
          "name": "s",
          "type": "bytes32"
        }
      ],
      "name": "ECDSAInvalidSignatureS",
      "type": "error"
    },
    {
      "inputs": [
        {
          "internalType": "address",
          "name": "owner",
          "type": "address"
        }
      ],
      "name": "OwnableInvalidOwner",
      "type": "error"
    },
    {
      "inputs": [
        {
          "internalType": "address",
          "name": "account",
          "type": "address"
        }
      ],
      "name": "OwnableUnauthorizedAccount",
      "type": "error"
    },
    {
      "anonymous": false,
      "inputs": [
        {
          "indexed": true,
          "internalType": "address",
          "name": "previousOwner",
          "type": "address"
        },
        {
          "indexed": true,
          "internalType": "address",
          "name": "newOwner",
          "type": "address"
        }
      ],
      "name": "OwnershipTransferred",
      "type": "event"
    },
    {
      "anonymous": false,
      "inputs": [
        {
          "indexed": true,
          "internalType": "bytes32",
          "name": "stallId",
          "type": "bytes32"
        },
        {
          "indexed": true,
          "internalType": "address",
          "name": "student",
          "type": "address"
        },
        {
          "indexed": true,
          "internalType": "address",
          "name": "vendor",
          "type": "address"
        },
        {
          "indexed": false,
          "internalType": "uint256",
          "name": "amount",
          "type": "uint256"
        },
        {
          "indexed": false,
          "internalType": "bytes32",
          "name": "nonce",
          "type": "bytes32"
        }
      ],
      "name": "Payment",
      "type": "event"
    },
    {
      "anonymous": false,
      "inputs": [
        {
          "indexed": true,
          "internalType": "bytes32",
          "name": "stallId",
          "type": "bytes32"
        }
      ],
      "name": "VendorDeactivated",
      "type": "event"
    },
    {
      "anonymous": false,
      "inputs": [
        {
          "indexed": true,
          "internalType": "bytes32",
          "name": "stallId",
          "type": "bytes32"
        },
        {
          "indexed": true,
          "internalType": "address",
          "name": "wallet",
          "type": "address"
        },
        {
          "indexed": false,
          "internalType": "string",
          "name": "name",
          "type": "string"
        }
      ],
      "name": "VendorRegistered",
      "type": "event"
    },
    {
      "inputs": [
        {
          "internalType": "bytes32",
          "name": "stallId",
          "type": "bytes32"
        }
      ],
      "name": "deactivateVendor",
      "outputs": [],
      "stateMutability": "nonpayable",
      "type": "function"
    },
    {
      "inputs": [],
      "name": "festToken",
      "outputs": [
        {
          "internalType": "contract IERC20",
          "name": "",
          "type": "address"
        }
      ],
      "stateMutability": "view",
      "type": "function"
    },
    {
      "inputs": [
        {
          "internalType": "bytes32",
          "name": "stallId",
          "type": "bytes32"
        },
        {
          "internalType": "uint256",
          "name": "amount",
          "type": "uint256"
        },
        {
          "internalType": "uint256",
          "name": "expiry",
          "type": "uint256"
        },
        {
          "internalType": "bytes32",
          "name": "nonce",
          "type": "bytes32"
        }
      ],
      "name": "getPaymentHash",
      "outputs": [
        {
          "internalType": "bytes32",
          "name": "",
          "type": "bytes32"
        }
      ],
      "stateMutability": "view",
      "type": "function"
    },
    {
      "inputs": [],
      "name": "owner",
      "outputs": [
        {
          "internalType": "address",
          "name": "",
          "type": "address"
        }
      ],
      "stateMutability": "view",
      "type": "function"
    },
    {
      "inputs": [
        {
          "internalType": "bytes32",
          "name": "stallId",
          "type": "bytes32"
        },
        {
          "internalType": "uint256",
          "name": "amount",
          "type": "uint256"
        },
        {
          "internalType": "uint256",
          "name": "expiry",
          "type": "uint256"
        },
        {
          "internalType": "bytes32",
          "name": "nonce",
          "type": "bytes32"
        },
        {
          "internalType": "bytes",
          "name": "sig",
          "type": "bytes"
        }
      ],
      "name": "pay",
      "outputs": [],
      "stateMutability": "nonpayable",
      "type": "function"
    },
    {
      "inputs": [
        {
          "internalType": "bytes32",
          "name": "stallId",
          "type": "bytes32"
        },
        {
          "internalType": "address",
          "name": "wallet",
          "type": "address"
        },
        {
          "internalType": "string",
          "name": "name",
          "type": "string"
        }
      ],
      "name": "registerVendor",
      "outputs": [],
      "stateMutability": "nonpayable",
      "type": "function"
    },
    {
      "inputs": [],
      "name": "renounceOwnership",
      "outputs": [],
      "stateMutability": "nonpayable",
      "type": "function"
    },
    {
      "inputs": [
        {
          "internalType": "address",
          "name": "_signer",
          "type": "address"
        }
      ],
      "name": "setSigner",
      "outputs": [],
      "stateMutability": "nonpayable",
      "type": "function"
    },
    {
      "inputs": [],
      "name": "signer",
      "outputs": [
        {
          "internalType": "address",
          "name": "",
          "type": "address"
        }
      ],
      "stateMutability": "view",
      "type": "function"
    },
    {
      "inputs": [
        {
          "internalType": "address",
          "name": "newOwner",
          "type": "address"
        }
      ],
      "name": "transferOwnership",
      "outputs": [],
      "stateMutability": "nonpayable",
      "type": "function"
    },
    {
      "inputs": [
        {
          "internalType": "bytes32",
          "name": "",
          "type": "bytes32"
        }
      ],
      "name": "usedNonces",
      "outputs": [
        {
          "internalType": "bool",
          "name": "",
          "type": "bool"
        }
      ],
      "stateMutability": "view",
      "type": "function"
    },
    {
      "inputs": [
        {
          "internalType": "bytes32",
          "name": "",
          "type": "bytes32"
        }
      ],
      "name": "vendors",
      "outputs": [
        {
          "internalType": "address",
          "name": "wallet",
          "type": "address"
        },
        {
          "internalType": "string",
          "name": "name",
          "type": "string"
        },
        {
          "internalType": "bool",
          "name": "active",
          "type": "bool"
        }
      ],
      "stateMutability": "view",
      "type": "function"
    }
  ],
  "bytecode": "0x60a060405234801561000f575f80fd5b5060405161105b38038061105b83398101604081905261002e916100f9565b806001600160a01b03811661005c57604051631e4fbdf760e01b81525f600482015260240160405180910390fd5b6100658161008f565b50506001600160a01b03918216608052600180546001600160a01b03191691909216179055610139565b5f80546001600160a01b038381166001600160a01b0319831681178455604051919092169283917f8be0079c531659141344cd1fd0a4f28419497f9722a3daafe3b4186f6b6457e09190a35050565b80516001600160a01b03811681146100f4575f80fd5b919050565b5f805f6060848603121561010b575f80fd5b610114846100de565b9250610122602085016100de565b9150610130604085016100de565b90509250925092565b608051610f036101585f395f818161015001526104660152610f035ff3fe608060405234801561000f575f80fd5b50600436106100b1575f3560e01c80639be0bf6d1161006e5780639be0bf6d146101385780639f4b7aee1461014b578063a61a809c14610172578063d37faede14610194578063f2fde38b146101b5578063feb61724146101c8575f80fd5b8063238ac933146100b557806368b74d56146100e55780636c19e783146100fa578063715018a61461010d578063874d1272146101155780638da5cb5b14610128575b5f80fd5b6001546100c8906001600160a01b031681565b6040516001600160a01b0390911681526020015b60405180910390f35b6100f86100f3366004610b34565b6101fa565b005b6100f8610108366004610bb4565b610575565b6100f861059f565b6100f8610123366004610bd4565b6105b2565b5f546001600160a01b03166100c8565b6100f8610146366004610beb565b6105fe565b6100c87f000000000000000000000000000000000000000000000000000000000000000081565b610185610180366004610bd4565b610751565b6040516100dc93929190610c41565b6101a76101a2366004610ca6565b610806565b6040519081526020016100dc565b6100f86101c3366004610bb4565b610842565b6101ea6101d6366004610bd4565b60036020525f908152604090205460ff1681565b60405190151581526020016100dc565b8342111561024f5760405162461bcd60e51b815260206004820152601960248201527f46657374506173733a20515220636f646520657870697265640000000000000060448201526064015b60405180910390fd5b5f8381526003602052604090205460ff16156102ad5760405162461bcd60e51b815260206004820152601c60248201527f46657374506173733a206e6f6e636520616c72656164792075736564000000006044820152606401610246565b5f8681526002602081905260409091209081015460ff166103105760405162461bcd60e51b815260206004820152601b60248201527f46657374506173733a2076656e646f72206e6f742061637469766500000000006044820152606401610246565b5f87878787463060405160200161032c96959493929190610cd5565b6040516020818303038152906040528051906020012090505f61037b827f19457468657265756d205369676e6564204d6573736167653a0a3332000000005f908152601c91909152603c902090565b90505f6103bf86868080601f0160208091040260200160405190810160405280939291908181526020018383808284375f92019190915250869392505061087f9050565b6001549091506001600160a01b0380831691161461041f5760405162461bcd60e51b815260206004820152601b60248201527f46657374506173733a20696e76616c6964207369676e617475726500000000006044820152606401610246565b5f8781526003602052604090819020805460ff19166001179055845490516323b872dd60e01b81523360048201526001600160a01b039182166024820152604481018b90527f0000000000000000000000000000000000000000000000000000000000000000909116906323b872dd906064016020604051808303815f875af11580156104ae573d5f803e3d5ffd5b505050506040513d601f19601f820116820180604052508101906104d29190610d14565b61051e5760405162461bcd60e51b815260206004820152601960248201527f46657374506173733a207472616e73666572206661696c6564000000000000006044820152606401610246565b8354604080518b8152602081018a90526001600160a01b039092169133918d917f3460f925ee54b08ddb1fa4f7d4abe37bceb732c0dd80651d494365c5849a534f910160405180910390a450505050505050505050565b61057d6108a7565b600180546001600160a01b0319166001600160a01b0392909216919091179055565b6105a76108a7565b6105b05f6108d3565b565b6105ba6108a7565b5f818152600260208190526040808320909101805460ff191690555182917f79dda14878f2b656a5d9165002a199ad4b6278334979af9564c46cda944ef3fc91a250565b6106066108a7565b6001600160a01b0383166106555760405162461bcd60e51b815260206004820152601660248201527546657374506173733a207a65726f206164647265737360501b6044820152606401610246565b6040518060600160405280846001600160a01b0316815260200183838080601f0160208091040260200160405190810160405280939291908181526020018383808284375f920182905250938552505060016020938401819052888352600284526040909220845181546001600160a01b0319166001600160a01b0390911617815592840151918301916106ea915082610dcb565b50604091820151600291909101805460ff1916911515919091179055516001600160a01b0384169085907f3ab2295538a049e5496e325267d1e56d4b19a18534aec84181314f798be8e979906107439086908690610e8b565b60405180910390a350505050565b60026020525f9081526040902080546001820180546001600160a01b03909216929161077c90610d47565b80601f01602080910402602001604051908101604052809291908181526020018280546107a890610d47565b80156107f35780601f106107ca576101008083540402835291602001916107f3565b820191905f5260205f20905b8154815290600101906020018083116107d657829003601f168201915b5050506002909301549192505060ff1683565b5f84848484463060405160200161082296959493929190610cd5565b604051602081830303815290604052805190602001209050949350505050565b61084a6108a7565b6001600160a01b03811661087357604051631e4fbdf760e01b81525f6004820152602401610246565b61087c816108d3565b50565b5f805f8061088d8686610922565b92509250925061089d828261096b565b5090949350505050565b5f546001600160a01b031633146105b05760405163118cdaa760e01b8152336004820152602401610246565b5f80546001600160a01b038381166001600160a01b0319831681178455604051919092169283917f8be0079c531659141344cd1fd0a4f28419497f9722a3daafe3b4186f6b6457e09190a35050565b5f805f8351604103610959576020840151604085015160608601515f1a61094b88828585610a27565b955095509550505050610964565b505081515f91506002905b9250925092565b5f82600381111561097e5761097e610eb9565b03610987575050565b600182600381111561099b5761099b610eb9565b036109b95760405163f645eedf60e01b815260040160405180910390fd5b60028260038111156109cd576109cd610eb9565b036109ee5760405163fce698f760e01b815260048101829052602401610246565b6003826003811115610a0257610a02610eb9565b03610a23576040516335e2f38360e21b815260048101829052602401610246565b5050565b5f80807f7fffffffffffffffffffffffffffffff5d576e7357a4501ddfe92f46681b20a0841115610a6057505f91506003905082610ae5565b604080515f808252602082018084528a905260ff891692820192909252606081018790526080810186905260019060a0016020604051602081039080840390855afa158015610ab1573d5f803e3d5ffd5b5050604051601f1901519150506001600160a01b038116610adc57505f925060019150829050610ae5565b92505f91508190505b9450945094915050565b5f8083601f840112610aff575f80fd5b50813567ffffffffffffffff811115610b16575f80fd5b602083019150836020828501011115610b2d575f80fd5b9250929050565b5f805f805f8060a08789031215610b49575f80fd5b86359550602087013594506040870135935060608701359250608087013567ffffffffffffffff811115610b7b575f80fd5b610b8789828a01610aef565b979a9699509497509295939492505050565b80356001600160a01b0381168114610baf575f80fd5b919050565b5f60208284031215610bc4575f80fd5b610bcd82610b99565b9392505050565b5f60208284031215610be4575f80fd5b5035919050565b5f805f8060608587031215610bfe575f80fd5b84359350610c0e60208601610b99565b9250604085013567ffffffffffffffff811115610c29575f80fd5b610c3587828801610aef565b95989497509550505050565b60018060a01b03841681525f60206060602084015284518060608501525f5b81811015610c7c57868101830151858201608001528201610c60565b505f608082860101526080601f19601f830116850101925050508215156040830152949350505050565b5f805f8060808587031215610cb9575f80fd5b5050823594602084013594506040840135936060013592509050565b9586526020860194909452604085019290925260608085019190915260808401919091521b6bffffffffffffffffffffffff191660a082015260b40190565b5f60208284031215610d24575f80fd5b81518015158114610bcd575f80fd5b634e487b7160e01b5f52604160045260245ffd5b600181811c90821680610d5b57607f821691505b602082108103610d7957634e487b7160e01b5f52602260045260245ffd5b50919050565b601f821115610dc657805f5260205f20601f840160051c81016020851015610da45750805b601f840160051c820191505b81811015610dc3575f8155600101610db0565b50505b505050565b815167ffffffffffffffff811115610de557610de5610d33565b610df981610df38454610d47565b84610d7f565b602080601f831160018114610e2c575f8415610e155750858301515b5f19600386901b1c1916600185901b178555610e83565b5f85815260208120601f198616915b82811015610e5a57888601518255948401946001909101908401610e3b565b5085821015610e7757878501515f19600388901b60f8161c191681555b505060018460011b0185555b505050505050565b60208152816020820152818360408301375f818301604090810191909152601f909201601f19160101919050565b634e487b7160e01b5f52602160045260245ffdfea2646970667358221220f3756992b7d6cd2c649aebfb689213fee490519f08f2493ae4561dce5598053564736f6c63430008180033",
  "linkReferences": {},
  "deployedLinkReferences": {}
}