{
  "_format": "hh-sol-artifact-1",
  "contractName": "FestPay",
  "sourceName": "src/FestPay.sol",
  "abi": [
    {
      "inputs": [
        {
          "internalType": "address",
          "name": "_festToken",
          "type": "address"
        }
      ],
      "stateMutability": "nonpayable",
      "type": "constructor"
    },
    {
      "inputs": [],
      "name": "FestPay__InvalidMerchant",
      "type": "error"
    },
    {
      "inputs": [],
      "name": "FestPay__TransferFailed",
      "type": "error"
    },
    {
      "inputs": [],
      "name": "FestPay__ZeroAmount",
      "type": "error"
    },
    {
      "inputs": [],
      "name": "ReentrancyGuardReentrantCall",
      "type": "error"
    },
    {
      "anonymous": false,
      "inputs": [
        {
          "indexed": true,
          "internalType": "uint256",
          "name": "festId",
          "type": "uint256"
        },
        {
          "indexed": true,
          "internalType": "address",
          "name": "merchant",
          "type": "address"
        },
        {
          "indexed": true,
          "internalType": "address",
          "name": "student",
          "type": "address"
        },
        {
          "indexed": false,
          "internalType": "uint256",
          "name": "amount",
          "type": "uint256"
        }
      ],
      "name": "PaymentReceived",
      "type": "event"
    },
    {
      "inputs": [],
      "name": "festToken",
      "outputs": [
        {
          "internalType": "contract IERC20",
          "name": "",
          "type": "address"
        }
      ],
      "stateMutability": "view",
      "type": "function"
    },
    {
      "inputs": [
        {
          "internalType": "uint256",
          "name": "festId",
          "type": "uint256"
        },
        {
          "internalType": "address",
          "name": "merchant",
          "type": "address"
        },
        {
          "internalType": "uint256",
          "name": "amount",
          "type": "uint256"
        }
      ],
      "name": "payMerchant",
      "outputs": [],
      "stateMutability": "nonpayable",
      "type": "function"
    }
  ],
  "bytecode": "0x60a060405234801561000f575f80fd5b5060405161042c38038061042c83398101604081905261002e916100bd565b60017f9b779b17422d0df92223018b32b4d1fa46e071723d6817e2486d003becc55f00556001600160a01b0381166100ac5760405162461bcd60e51b815260206004820152601b60248201527f466573745061793a207a65726f20746f6b656e20616464726573730000000000604482015260640160405180910390fd5b6001600160a01b03166080526100ea565b5f602082840312156100cd575f80fd5b81516001600160a01b03811681146100e3575f80fd5b9392505050565b6080516103246101085f395f81816052015261010d01526103245ff3fe608060405234801561000f575f80fd5b5060043610610034575f3560e01c806321feb7a1146100385780639f4b7aee1461004d575b5f80fd5b61004b610046366004610288565b610090565b005b6100747f000000000000000000000000000000000000000000000000000000000000000081565b6040516001600160a01b03909116815260200160405180910390f35b610098610216565b6001600160a01b0382166100bf576040516311c57cd160e01b815260040160405180910390fd5b805f036100df5760405163a379ebef60e01b815260040160405180910390fd5b6040516323b872dd60e01b81523360048201526001600160a01b038381166024830152604482018390525f917f0000000000000000000000000000000000000000000000000000000000000000909116906323b872dd906064016020604051808303815f875af1158015610155573d5f803e3d5ffd5b505050506040513d601f19601f8201168201806040525081019061017991906102c8565b90508061019957604051636158847d60e11b815260040160405180910390fd5b336001600160a01b0316836001600160a01b0316857f3df2dc7c3520e3eae9e0204ceb677606a01bb80f05dbbbc6613e951fe194faac856040516101df91815260200190565b60405180910390a45061021160017f9b779b17422d0df92223018b32b4d1fa46e071723d6817e2486d003becc55f0055565b505050565b61021e610244565b60027f9b779b17422d0df92223018b32b4d1fa46e071723d6817e2486d003becc55f0055565b7f9b779b17422d0df92223018b32b4d1fa46e071723d6817e2486d003becc55f005460020361028657604051633ee5aeb560e01b815260040160405180910390fd5b565b5f805f6060848603121561029a575f80fd5b8335925060208401356001600160a01b03811681146102b7575f80fd5b929592945050506040919091013590565b5f602082840312156102d8575f80fd5b815180151581146102e7575f80fd5b939250505056fea2646970667358221220e273419563ffdeba2ce7046f23f088af7cd29f69cd2e38747523d1b3d4e6baac64736f6c63430008180033",
  "linkReferences": {},
  "deployedLinkReferences": {}
}