{
  "_format": "hh-sol-artifact-1",
  "contractName": "FESTToken",
  "sourceName": "src/FESTToken.sol",
  "abi": [
    {
      "inputs": [
        {
          "internalType": "address",
          "name": "initialOwner",
          "type": "address"
        }
      ],
      "stateMutability": "nonpayable",
      "type": "constructor"
    },
    {
      "inputs": [
        {
          "internalType": "address",
          "name": "spender",
          "type": "address"
        },
        {
          "internalType": "uint256",
          "name": "allowance",
          "type": "uint256"
        },
        {
          "internalType": "uint256",
          "name": "needed",
          "type": "uint256"
        }
      ],
      "name": "ERC20InsufficientAllowance",
      "type": "error"
    },
    {
      "inputs": [
        {
          "internalType": "address",
          "name": "sender",
          "type": "address"
        },
        {
          "internalType": "uint256",
          "name": "balance",
          "type": "uint256"
        },
        {
          "internalType": "uint256",
          "name": "needed",
          "type": "uint256"
        }
      ],
      "name": "ERC20InsufficientBalance",
      "type": "error"
    },
    {
      "inputs": [
        {
          "internalType": "address",
          "name": "approver",
          "type": "address"
        }
      ],
      "name": "ERC20InvalidApprover",
      "type": "error"
    },
    {
      "inputs": [
        {
          "internalType": "address",
          "name": "receiver",
          "type": "address"
        }
      ],
      "name": "ERC20InvalidReceiver",
      "type": "error"
    },
    {
      "inputs": [
        {
          "internalType": "address",
          "name": "sender",
          "type": "address"
        }
      ],
      "name": "ERC20InvalidSender",
      "type": "error"
    },
    {
      "inputs": [
        {
          "internalType": "address",
          "name": "spender",
          "type": "address"
        }
      ],
      "name": "ERC20InvalidSpender",
      "type": "error"
    },
    {
      "inputs": [
        {
          "internalType": "address",
          "name": "owner",
          "type": "address"
        }
      ],
      "name": "OwnableInvalidOwner",
      "type": "error"
    },
    {
      "inputs": [
        {
          "internalType": "address",
          "name": "account",
          "type": "address"
        }
      ],
      "name": "OwnableUnauthorizedAccount",
      "type": "error"
    },
    {
      "anonymous": false,
      "inputs": [
        {
          "indexed": true,
          "internalType": "address",
          "name": "owner",
          "type": "address"
        },
        {
          "indexed": true,
          "internalType": "address",
          "name": "spender",
          "type": "address"
        },
        {
          "indexed": false,
          "internalType": "uint256",
          "name": "value",
          "type": "uint256"
        }
      ],
      "name": "Approval",
      "type": "event"
    },
    {
      "anonymous": false,
      "inputs": [
        {
          "indexed": true,
          "internalType": "address",
          "name": "minter",
          "type": "address"
        }
      ],
      "name": "MinterAdded",
      "type": "event"
    },
    {
      "anonymous": false,
      "inputs": [
        {
          "indexed": true,
          "internalType": "address",
          "name": "minter",
          "type": "address"
        }
      ],
      "name": "MinterRemoved",
      "type": "event"
    },
    {
      "anonymous": false,
      "inputs": [
        {
          "indexed": true,
          "internalType": "address",
          "name": "previousOwner",
          "type": "address"
        },
        {
          "indexed": true,
          "internalType": "address",
          "name": "newOwner",
          "type": "address"
        }
      ],
      "name": "OwnershipTransferred",
      "type": "event"
    },
    {
      "anonymous": false,
      "inputs": [
        {
          "indexed": true,
          "internalType": "address",
          "name": "from",
          "type": "address"
        },
        {
          "indexed": true,
          "internalType": "address",
          "name": "to",
          "type": "address"
        },
        {
          "indexed": false,
          "internalType": "uint256",
          "name": "value",
          "type": "uint256"
        }
      ],
      "name": "Transfer",
      "type": "event"
    },
    {
      "inputs": [
        {
          "internalType": "address",
          "name": "minter",
          "type": "address"
        }
      ],
      "name": "addMinter",
      "outputs": [],
      "stateMutability": "nonpayable",
      "type": "function"
    },
    {
      "inputs": [
        {
          "internalType": "address",
          "name": "owner",
          "type": "address"
        },
        {
          "internalType": "address",
          "name": "spender",
          "type": "address"
        }
      ],
      "name": "allowance",
      "outputs": [
        {
          "internalType": "uint256",
          "name": "",
          "type": "uint256"
        }
      ],
      "stateMutability": "view",
      "type": "function"
    },
    {
      "inputs": [
        {
          "internalType": "address",
          "name": "spender",
          "type": "address"
        },
        {
          "internalType": "uint256",
          "name": "value",
          "type": "uint256"
        }
      ],
      "name": "approve",
      "outputs": [
        {
          "internalType": "bool",
          "name": "",
          "type": "bool"
        }
      ],
      "stateMutability": "nonpayable",
      "type": "function"
    },
    {
      "inputs": [
        {
          "internalType": "address",
          "name": "account",
          "type": "address"
        }
      ],
      "name": "balanceOf",
      "outputs": [
        {
          "internalType": "uint256",
          "name": "",
          "type": "uint256"
        }
      ],
      "stateMutability": "view",
      "type": "function"
    },
    {
      "inputs": [],
      "name": "decimals",
      "outputs": [
        {
          "internalType": "uint8",
          "name": "",
          "type": "uint8"
        }
      ],
      "stateMutability": "view",
      "type": "function"
    },
    {
      "inputs": [
        {
          "internalType": "address",
          "name": "to",
          "type": "address"
        },
        {
          "internalType": "uint256",
          "name": "amount",
          "type": "uint256"
        }
      ],
      "name": "mint",
      "outputs": [],
      "stateMutability": "nonpayable",
      "type": "function"
    },
    {
      "inputs": [
        {
          "internalType": "address",
          "name": "",
          "type": "address"
        }
      ],
      "name": "minters",
      "outputs": [
        {
          "internalType": "bool",
          "name": "",
          "type": "bool"
        }
      ],
      "stateMutability": "view",
      "type": "function"
    },
    {
      "inputs": [],
      "name": "name",
      "outputs": [
        {
          "internalType": "string",
          "name": "",
          "type": "string"
        }
      ],
      "stateMutability": "view",
      "type": "function"
    },
    {
      "inputs": [],
      "name": "owner",
      "outputs": [
        {
          "internalType": "address",
          "name": "",
          "type": "address"
        }
      ],
      "stateMutability": "view",
      "type": "function"
    },
    {
      "inputs": [
        {
          "internalType": "address",
          "name": "minter",
          "type": "address"
        }
      ],
      "name": "removeMinter",
      "outputs": [],
      "stateMutability": "nonpayable",
      "type": "function"
    },
    {
      "inputs": [],
      "name": "renounceOwnership",
      "outputs": [],
      "stateMutability": "nonpayable",
      "type": "function"
    },
    {
      "inputs": [],
      "name": "symbol",
      "outputs": [
        {
          "internalType": "string",
          "name": "",
          "type": "string"
        }
      ],
      "stateMutability": "view",
      "type": "function"
    },
    {
      "inputs": [],
      "name": "totalSupply",
      "outputs": [
        {
          "internalType": "uint256",
          "name": "",
          "type": "uint256"
        }
      ],
      "stateMutability": "view",
      "type": "function"
    },
    {
      "inputs": [
        {
          "internalType": "address",
          "name": "to",
          "type": "address"
        },
        {
          "internalType": "uint256",
          "name": "value",
          "type": "uint256"
        }
      ],
      "name": "transfer",
      "outputs": [
        {
          "internalType": "bool",
          "name": "",
          "type": "bool"
        }
      ],
      "stateMutability": "nonpayable",
      "type": "function"
    },
    {
      "inputs": [
        {
          "internalType": "address",
          "name": "from",
          "type": "address"
        },
        {
          "internalType": "address",
          "name": "to",
          "type": "address"
        },
        {
          "internalType": "uint256",
          "name": "value",
          "type": "uint256"
        }
      ],
      "name": "transferFrom",
      "outputs": [
        {
          "internalType": "bool",
          "name": "",
          "type": "bool"
        }
      ],
      "stateMutability": "nonpayable",
      "type": "function"
    },
    {
      "inputs": [
        {
          "internalType": "address",
          "name": "newOwner",
          "type": "address"
        }
      ],
      "name": "transferOwnership",
      "outputs": [],
      "stateMutability": "nonpayable",
      "type": "function"
    }
  ],
  "bytecode": "0x608060405234801562000010575f80fd5b5060405162000fdf38038062000fdf8339810160408190526200003391620002c1565b806040518060400160405280600e81526020016d2332b9ba2830b9b9902a37b5b2b760911b81525060405180604001604052806004815260200163119154d560e21b81525081600390816200008991906200038e565b5060046200009882826200038e565b5050506001600160a01b038116620000ca57604051631e4fbdf760e01b81525f60048201526024015b60405180910390fd5b620000d58162000105565b50620000fe81620000e96012600a62000569565b620000f890620f424062000579565b62000156565b50620005a9565b600580546001600160a01b038381166001600160a01b0319831681179093556040519116919082907f8be0079c531659141344cd1fd0a4f28419497f9722a3daafe3b4186f6b6457e0905f90a35050565b6001600160a01b038216620001815760405163ec442f0560e01b81525f6004820152602401620000c1565b6200018e5f838362000192565b5050565b6001600160a01b038316620001c0578060025f828254620001b4919062000593565b90915550620002329050565b6001600160a01b0383165f9081526020819052604090205481811015620002145760405163391434e360e21b81526001600160a01b03851660048201526024810182905260448101839052606401620000c1565b6001600160a01b0384165f9081526020819052604090209082900390555b6001600160a01b03821662000250576002805482900390556200026e565b6001600160a01b0382165f9081526020819052604090208054820190555b816001600160a01b0316836001600160a01b03167fddf252ad1be2c89b69c2b068fc378daa952ba7f163c4a11628f55a4df523b3ef83604051620002b491815260200190565b60405180910390a3505050565b5f60208284031215620002d2575f80fd5b81516001600160a01b0381168114620002e9575f80fd5b9392505050565b634e487b7160e01b5f52604160045260245ffd5b600181811c908216806200031957607f821691505b6020821081036200033857634e487b7160e01b5f52602260045260245ffd5b50919050565b601f8211156200038957805f5260205f20601f840160051c81016020851015620003655750805b601f840160051c820191505b8181101562000386575f815560010162000371565b50505b505050565b81516001600160401b03811115620003aa57620003aa620002f0565b620003c281620003bb845462000304565b846200033e565b602080601f831160018114620003f8575f8415620003e05750858301515b5f19600386901b1c1916600185901b17855562000452565b5f85815260208120601f198616915b82811015620004285788860151825594840194600190910190840162000407565b50858210156200044657878501515f19600388901b60f8161c191681555b505060018460011b0185555b505050505050565b634e487b7160e01b5f52601160045260245ffd5b600181815b80851115620004ae57815f19048211156200049257620004926200045a565b80851615620004a057918102915b93841c939080029062000473565b509250929050565b5f82620004c65750600162000563565b81620004d457505f62000563565b8160018114620004ed5760028114620004f85762000518565b600191505062000563565b60ff8411156200050c576200050c6200045a565b50506001821b62000563565b5060208310610133831016604e8410600b84101617156200053d575081810a62000563565b6200054983836200046e565b805f19048211156200055f576200055f6200045a565b0290505b92915050565b5f620002e960ff841683620004b6565b80820281158282048414176200056357620005636200045a565b808201808211156200056357620005636200045a565b610a2880620005b75f395ff3fe608060405234801561000f575f80fd5b50600436106100fb575f3560e01c8063715018a611610093578063a9059cbb11610063578063a9059cbb14610202578063dd62ed3e14610215578063f2fde38b1461024d578063f46eccc414610260575f80fd5b8063715018a6146101c45780638da5cb5b146101cc57806395d89b41146101e7578063983b2d56146101ef575f80fd5b80633092afd5116100ce5780633092afd514610165578063313ce5671461017a57806340c10f191461018957806370a082311461019c575f80fd5b806306fdde03146100ff578063095ea7b31461011d57806318160ddd1461014057806323b872dd14610152575b5f80fd5b610107610282565b6040516101149190610882565b60405180910390f35b61013061012b3660046108e9565b610312565b6040519015158152602001610114565b6002545b604051908152602001610114565b610130610160366004610911565b61032b565b61017861017336600461094a565b61034e565b005b60405160128152602001610114565b6101786101973660046108e9565b61039e565b6101446101aa36600461094a565b6001600160a01b03165f9081526020819052604090205490565b61017861042e565b6005546040516001600160a01b039091168152602001610114565b610107610441565b6101786101fd36600461094a565b610450565b6101306102103660046108e9565b6104a3565b61014461022336600461096a565b6001600160a01b039182165f90815260016020908152604080832093909416825291909152205490565b61017861025b36600461094a565b6104b0565b61013061026e36600461094a565b60066020525f908152604090205460ff1681565b6060600380546102919061099b565b80601f01602080910402602001604051908101604052809291908181526020018280546102bd9061099b565b80156103085780601f106102df57610100808354040283529160200191610308565b820191905f5260205f20905b8154815290600101906020018083116102eb57829003601f168201915b5050505050905090565b5f3361031f8185856104ed565b60019150505b92915050565b5f336103388582856104ff565b61034385858561057b565b506001949350505050565b6103566105d8565b6001600160a01b0381165f81815260066020526040808220805460ff19169055517fe94479a9f7e1952cc78f2d6baab678adc1b772d936c6583def489e524cb666929190a250565b335f9081526006602052604090205460ff16806103c557506005546001600160a01b031633145b6104205760405162461bcd60e51b815260206004820152602160248201527f46455354546f6b656e3a2063616c6c6572206973206e6f742061206d696e74656044820152603960f91b60648201526084015b60405180910390fd5b61042a8282610605565b5050565b6104366105d8565b61043f5f610639565b565b6060600480546102919061099b565b6104586105d8565b6001600160a01b0381165f81815260066020526040808220805460ff19166001179055517f6ae172837ea30b801fbfcdd4108aa1d5bf8ff775444fd70256b44e6bf3dfc3f69190a250565b5f3361031f81858561057b565b6104b86105d8565b6001600160a01b0381166104e157604051631e4fbdf760e01b81525f6004820152602401610417565b6104ea81610639565b50565b6104fa838383600161068a565b505050565b6001600160a01b038381165f908152600160209081526040808320938616835292905220545f19811015610575578181101561056757604051637dc7a0d960e11b81526001600160a01b03841660048201526024810182905260448101839052606401610417565b61057584848484035f61068a565b50505050565b6001600160a01b0383166105a457604051634b637e8f60e11b81525f6004820152602401610417565b6001600160a01b0382166105cd5760405163ec442f0560e01b81525f6004820152602401610417565b6104fa83838361075c565b6005546001600160a01b0316331461043f5760405163118cdaa760e01b8152336004820152602401610417565b6001600160a01b03821661062e5760405163ec442f0560e01b81525f6004820152602401610417565b61042a5f838361075c565b600580546001600160a01b038381166001600160a01b0319831681179093556040519116919082907f8be0079c531659141344cd1fd0a4f28419497f9722a3daafe3b4186f6b6457e0905f90a35050565b6001600160a01b0384166106b35760405163e602df0560e01b81525f6004820152602401610417565b6001600160a01b0383166106dc57604051634a1406b160e11b81525f6004820152602401610417565b6001600160a01b038085165f908152600160209081526040808320938716835292905220829055801561057557826001600160a01b0316846001600160a01b03167f8c5be1e5ebec7d5bd14f71427d1e84f3dd0314c0f7b2291e5b200ac8c7c3b9258460405161074e91815260200190565b60405180910390a350505050565b6001600160a01b038316610786578060025f82825461077b91906109d3565b909155506107f69050565b6001600160a01b0383165f90815260208190526040902054818110156107d85760405163391434e360e21b81526001600160a01b03851660048201526024810182905260448101839052606401610417565b6001600160a01b0384165f9081526020819052604090209082900390555b6001600160a01b03821661081257600280548290039055610830565b6001600160a01b0382165f9081526020819052604090208054820190555b816001600160a01b0316836001600160a01b03167fddf252ad1be2c89b69c2b068fc378daa952ba7f163c4a11628f55a4df523b3ef8360405161087591815260200190565b60405180910390a3505050565b5f602080835283518060208501525f5b818110156108ae57858101830151858201604001528201610892565b505f604082860101526040601f19601f8301168501019250505092915050565b80356001600160a01b03811681146108e4575f80fd5b919050565b5f80604083850312156108fa575f80fd5b610903836108ce565b946020939093013593505050565b5f805f60608486031215610923575f80fd5b61092c846108ce565b925061093a602085016108ce565b9150604084013590509250925092565b5f6020828403121561095a575f80fd5b610963826108ce565b9392505050565b5f806040838503121561097b575f80fd5b610984836108ce565b9150610992602084016108ce565b90509250929050565b600181811c908216806109af57607f821691505b6020821081036109cd57634e487b7160e01b5f52602260045260245ffd5b50919050565b8082018082111561032557634e487b7160e01b5f52601160045260245ffdfea26469706673582212207af431620a1806793a4931c580e36cb24fc459195d18510a8e17ea3b7efcd55964736f6c63430008180033",
  "linkReferences": {},
  "deployedLinkReferences": {}
}